:100000000A168A152F2C83120313A600A501261C9D
:100010000A280B2810282408FC007C08A5071028B3
:100020000310A40D0310A60CA608031D18281928F8
:1000300007281A2825081C2808008E30FC007C0898
:10004000FD00302801300310FB0CFA0CF90CF80C01
:10005000FF3E031D23280130FC007C08FD073028EB
:10006000FF307B05031D35283628222837287808DD
:10007000F0007908F1007A08F2007D08FC007C08A5
:10008000F300F4010A168A1585270A128A117008EE
:10009000F8007108F9007208FA004E28080083126F
:1000A0000313E1006E306102031C572858283529DC
:1000B0000330D5005508A4000A30F7000030F800DE
:1000C0006108D600D7015608F2005708F3006430E3
:1000D000F0000030F1000A168A15CF250A128A11A5
:1000E0007108FA01FA077008F901F9070A168A156A
:1000F0000F270A128A117708093E0A128A11032073
:100100000A128A11293E84000A168A110A200A124C
:100110008A1183120313B5000A168A110A200A12E3
:100120008A11B6000A168A110A200A128A11B7002B
:100130000330D8005808A4006430F7000030F800FD
:100140006108D900DA015908F9005A08FA000A16BC
:100150008A150F270A128A117708123E0A128A118D
:1001600003200A128A11293E84000A168A110A20E5
:100170000A128A1183120313B8000A168A110A2080
:100180000A128A11B9000A168A110A200A128A1163
:10019000BA000A128A1109270A128A11831203135C
:1001A0003508DE003608DF003708E0000330D500F0
:1001B0005508A4006108D600D7015608F200570878
:1001C000F3000A30F0000030F1000A168A15CF253E
:1001D0000A128A1170080A128A1103200A128A115F
:1001E000293E84000A168A110A200A128A118312F3
:1001F0000313B5000A168A110A200A128A11B600E2
:100200000A168A110A200A128A11B7005E08B8007D
:100210005F08B9006008BA000A128A1109270A1299
:100220008A11831203133508DB003608DC00370817
:10023000DD000030B5000030B6003F30B7005B088D
:10024000B8005C08B9005D08BA000A128A110927D3
:100250000A128A11831203133508D2003608D3001C
:100260003708D400F929F929C5290B306102031C8C
:100270003A293B29C5290330D5005508A400610857
:10028000D600D7015608F2005708F3000A30F000F4
:100290000030F1000A168A15CF250A128A1170085B
:1002A0000A128A1103200A128A11293E84000A16B2
:1002B0008A110A200A128A1183120313B5000A1642
:1002C0008A110A200A128A11B6000A168A110A2017
:1002D0000A128A11B7000330D8005808A4000A3067
:1002E000F7000030F8006108D900DA015908F90078
:1002F0005A08FA000A168A150F270A128A11770877
:10030000093E0A128A1103200A128A11293E84002A
:100310000A168A110A200A128A1183120313B800DE
:100320000A168A110A200A128A11B9000A168A11BD
:100330000A200A128A11BA000A128A1109270A121F
:100340008A11831203133508DE003608DF003708F0
:10035000E0000030B5000030B6003F30B7005E0866
:10036000B8005F08B9006008BA000A128A110927AC
:100370000A128A11831203133508D2003608D300FB
:100380003708D400F929F929C5290030B500003013
:10039000B6003F30B7000330D5005508A40061080F
:1003A0000A128A1103200A128A11293E84000A16B1
:1003B0008A110A200A128A1183120313B8000A163E
:1003C0008A110A200A128A11B9000A168A110A2013
:1003D0000A128A11BA000A128A1109270A128A110E
:1003E000831203133508D2003608D3003708D4002F
:1003F000F929080083160313B5000A128A15E02FA5
:100400003408253A0319052A062A402A3508013EF0
:1004100084008313800803190E2A0F2A212A340826
:1004200083120313E4006408AA008316031335083B
:10043000013E840000080A128A1100270A128A115C
:10044000FD2983160313340883120313E400831673
:1004500003133508840083130008840083120313F8
:100460006408831780000130E40083160313350805
:10047000840083120313640883138007FD29FD2978
:1004800083160313A401A5018312031362088400D9
:100490000A168A110A200A128A112E3A031D512ABD
:1004A000522AA92A83160313251701308312031336
:1004B000E4006408E20783160313AF01B001962A33
:1004C000831603133008F101F1072F08F001F0073C
:1004D0000A30F2000030F3000A168A15BC240A1212
:1004E0008A1183120313620884000A168A110A20F3
:1004F0000A128A117007E4000030031801307107F6
:10050000E5006408D03E83160313AF008312031383
:1005100065080318013EFF3E83160313B000013047
:1005200083120313E4006408E207962A8312620828
:1005300084000A168A110A200A128A110A168A15DC
:100540001A240A128A110318A62AA72A602AB92A8D
:10055000B92A83160313AF01B0012516B92AB92AA7
:100560000A128A15FA2F2515D52AD52AD52AFD294A
:10057000D52A013083120313E207FF30620784009B
:100580000A168A110A200A128A1183160313B4006C
:10059000003A0319B02A643A0319D52A023A03191A
:1005A000B32A0F3A0319D52AFD29003024058312F6
:1005B0000313E40007308316031325058312031386
:1005C000E500650864040319E62AE92A0A128A1577
:1005D000F42D83160313251EEE2AEF2AF42A063083
:1005E000AF000030B000F42A8312031363088400C4
:1005F00083130008E40003308007640884000008C7
:1006000083160313B100840A0008B200840A0008AC
:10061000B3003108F0003208F1003308F200003076
:10062000F3000030F4000030F5000A168A15352674
:100630000A128A1103181D2B1E2B382B8316031345
:100640003108F0003208F1003308F2000A168A156A
:10065000CE230A128A11700883160313B1007108A1
:10066000B2007208B3000330A4040030A504382B94
:1006700083160313A901AA013308320431040319B4
:10068000422B452B0A128A153128B130840083137E
:10069000000883120313E400840A0008E500840ABA
:1006A0000008E600840A0008E7000F300310E70C9A
:1006B000E60CE50CE40CFF3E031D562BFF306405F1
:1006C000E80000306505E9006808823E83160313E0
:1006D000A9008312031369080318013EFF3E831625
:1006E0000313AA00FF30A9070318AA0AFF30AA07BC
:1006F0000330F0000030F1002A08F301F307290865
:10070000F201F2070A168A15BC240A128A1171082E
:1007100083160313AA01AA077008A901A9070A30C2
:10072000F7000030F8002A08FA01FA072908F90151
:10073000F9070A168A150F270A128A1178088316F4
:100740000313AA01AA077708A901A907AA1FA92BC1
:10075000AA2BB12BFF30A9070318AA0AFF30AA075A
:10076000B12B2903FF3A0A128A1141240A128A1175
:1007700083120313450883160313A6008312031381
:10078000460883160313A700831203134708831632
:100790000313A800310883120313B5008316031353
:1007A000320883120313B60083160313330883122F
:1007B0000313B70083160313260883120313B8002C
:1007C00083160313270883120313B9008316031338
:1007D000280883120313BA000A128A1109270A1281
:1007E0008A1183120313350883160313A60083129C
:1007F0000313360883160313A70083120313370865
:1008000083160313A8002608F0002708F100280823
:10081000F2000030F3008030F4003F30F5000A169B
:100820008A1535260A128A110318172C182C212C28
:10083000FF3083160313A9070318AA0AFF30AA077B
:10084000422B831603132608F0002708F10028081E
:10085000F2000030F3002030F4004130F5000A16B9
:100860008A1535260A128A11031C372C382C422B84
:10087000013083160313A9070318AA0A0030AA0738
:10088000422B83120313CD00CD1F472C482CA52DDE
:10089000CD09CD0A4D08803A123E031C502C512C34
:1008A0000F2D0330C8004808A4000A30F7000030BC
:1008B000F8004D08F200F301F21BF3036430F0007E
:1008C0000030F1000A168A15CF250A128A11710824
:1008D000FA01FA077008F901F9070A168A150F27B5
:1008E0000A128A117708093E0A128A1103200A1295
:1008F0008A11293E84000A168A110A200A128A11D6
:1009000083120313B5000A168A110A200A128A11EB
:10091000B6000A168A110A200A128A11B70003309B
:10092000C9004908A4006430F7000030F8004D0801
:10093000F900FA01F91BFA030A168A150F270A12A1
:100940008A117708123E0A128A1103200A128A11AC
:10095000293E84000A168A110A200A128A1183127B
:100960000313B8000A168A110A200A128A11B90064
:100970000A168A110A200A128A11BA000A128A116A
:1009800009270A128A11831203133508CA00360890
:10099000CB003708CC000330C8004808A4004D083D
:1009A000F200F301F21BF3030A30F0000030F10013
:1009B0000A168A15CF250A128A1170080A128A119E
:1009C00003200A128A11293E84000A168A110A207D
:1009D0000A128A1183120313B5000A168A110A201B
:1009E0000A128A11B6000A168A110A200A128A11FE
:1009F000B7004A08B8004B08B9004C08BA000A1200
:100A00008A1109270A128A11831203133508C500B7
:100A10003608C6003708C700FF2EFF2E832D4D086D
:100A2000803A753E031C152D162D832D0330C8000A
:100A30004808A4004D08F200F301F21BF3030A304A
:100A4000F0000030F1000A168A15CF250A128A112B
:100A500070080A128A1103200A128A11293E8400A2
:100A60000A168A110A200A128A1183120313B5008A
:100A70000A168A110A200A128A11B6000A168A1169
:100A80000A200A128A11B7000330C9004908A400DD
:100A90000A30F7000030F8004D08F900FA01F91BA0
:100AA000FA030A168A150F270A128A117708093ED7
:100AB0000A128A1103200A128A11293E84000A169A
:100AC0008A110A200A128A1183120313B8000A1627
:100AD0008A110A200A128A11B9000A168A110A20FC
:100AE0000A128A11BA000A128A1109270A128A11F7
:100AF000831203133508C5003608C6003708C7003F
:100B0000FF2EFF2E832D0330C8004808A4004D0897
:100B10000A128A1103200A128A11293E84000A1639
:100B20008A110A200A128A1183120313C5000A16B9
:100B30008A110A200A128A11C6000A168A110A208E
:100B40000A128A11C700FF2EFF2E4D08803A123E6E
:100B5000031CAB2DAC2D6A2E0330C8004808A4003E
:100B60000A30F7000030F8004D08F200F301F21BE4
:100B7000F3036430F0000030F1000A168A15CF2527
:100B80000A128A117108FA01FA077008F901F907C7
:100B90000A168A150F270A128A117708093E0A12C7
:100BA0008A1103200A128A11503E84000A168A1103
:100BB0000A200A128A1183120313B5000A168A1139
:100BC0000A200A128A11B6000A168A110A200A128D
:100BD0008A11B7000330C9004908A4006430F70047
:100BE0000030F8004D08F900FA01F91BFA030A1663
:100BF0008A150F270A128A117708123E0A128A11E3
:100C000003200A128A11503E84000A168A110A2013
:100C10000A128A1183120313B8000A168A110A20D5
:100C20000A128A11B9000A168A110A200A128A11B8
:100C3000BA000A128A1109270A128A1183120313B1
:100C40003508CA003608CB003708CC000330C8008E
:100C50004808A4004D08F200F301F21BF3030A3028
:100C6000F0000030F1000A168A15CF250A128A1109
:100C700070080A128A1103200A128A11503E840059
:100C80000A168A110A200A128A1183120313B50068
:100C90000A168A110A200A128A11B6000A168A1147
:100CA0000A200A128A11B7004A08B8004B08B90096
:100CB0004C08BA000A128A1109270A128A118312F3
:100CC00003133508C5003608C6003708C700FF2ED5
:100CD000FF2EDE2E4D08803A753E031C702E712EBD
:100CE000DE2E0330C8004808A4004D08F200F301CE
:100CF000F21BF3030A30F0000030F1000A168A15E7
:100D0000CF250A128A1170080A128A1103200A12CA
:100D10008A11503E84000A168A110A200A128A118A
:100D200083120313B5000A168A110A200A128A11C7
:100D3000B6000A168A110A200A128A11B700033077
:100D4000C9004908A4000A30F7000030F8004D0837
:100D5000F900FA01F91BFA030A168A150F270A127D
:100D60008A117708093E0A128A1103200A128A1191
:100D7000503E84000A168A110A200A128A11831230
:100D80000313B8000A168A110A200A128A11B90040
:100D90000A168A110A200A128A11BA000A128A1146
:100DA00009270A128A11831203133508C500360871
:100DB000C6003708C700FF2EFF2EDE2E0330C80006
:100DC0004808A4004D080A128A1103200A128A1149
:100DD000503E84000A168A110A200A128A118312D0
:100DE0000313C5000A168A110A200A128A11C600C6
:100DF0000A168A110A200A128A11C700FF2E08005B
:100E0000FF0007308A007F088207052F0A168A151F
:100E1000C32B831203133508BB003608BC00370808
:100E2000BD0003103C0D3D0DBE003E08BF00BF08D5
:100E3000031D1B2F1C2F242F0030B5000030B600DF
:100E40000030B700F62FF62F3808BB003908BC0079
:100E50003A08BD0003103C0D3D0DBE003E08C40025
:100E6000C408031D342F352F3D2F0030B50000304E
:100E7000B6000030B700F62FF62F44087B3EBB00CB
:100E80003B08BF073508BB003608BC003708BD006B
:100E900010300310BD0CBC0CBB0CFF3E031D492FD2
:100EA0003B08BE003E08C4003808BB003908BC003F
:100EB0003A08BD0010300310BD0CBC0CBB0CFF3E4B
:100EC000031D5B2F3B08BE003E08C4068030BB00FC
:100ED0003B08C405B617B917FF30B805FF30B90590
:100EE0000030BA050030C0000030C1000030C20040
:100EF0000730BB003B08C3007D2F351C802F812F9E
:100F0000922F3808C007390803110318390A03194A
:100F10008A2FC1073A08031103183A0A0319912FBF
:100F2000C207922F01300310B70CB60CB50CFF3E70
:100F3000031D932F01300310B80DB90DBA0DFF3EFC
:100F4000031D9B2F0130C302031DA72FA82F7D2F48
:100F5000A92F0930BB003B08C300AE2F351CB12FB1
:100F6000B22FC32F3808C007390803110318390AF4
:100F70000319BB2FC1073A08031103183A0A0319D2
:100F8000C22FC207C32F01300310B70CB60CB50C2B
:100F9000FF3E031DC42F01300310C20CC10CC00C56
:100FA000FF3E031DCC2F0130C302031DD82FD92FC4
:100FB000AE2FDA2F4008F0004108F1004208F2009D
:100FC0003F08BB003B08F3004408BC003C08F400A9
:100FD0000A168A1585270A128A11700883120313CC
:100FE000B5007108B6007208B700F62F080064005B
:0E0FF0008001840A0406031900340406F82F59
:1010060083160313B8003808B6003608BA00BB01C9
:101016006B30B6003608B900831203136A088316CC
:101026000313B600360883120313E200B9308316A1
:101036000313B700370883120313E300BA300A120A
:101046008A11FA210A128A15831603133A088400B4
:10105600831780012E2808003128312883160313B0
:101066003008803AFF0080307F02031D3C280D3097
:101076002F0203183F2840287A28831603132F08C7
:101086000A128A114F200A128A1583120313520874
:10109600C5005308C6005408C70083160313310859
:1010A60083120313C8008316031332088312031333
:1010B600C90083160313330883120313CA000A16E2
:1010C6008A1151230A128A158312031345088316BF
:1010D6000313B10083120313460883160313B200E9
:1010E60083120313470883160313B3007A28831663
:1010F60003132A08803AFF0080307F02031D8528EB
:101106000A302902031888288928C1288316031360
:101116003308320431040319912892284A293108E8
:1011260083120313A70083160313320883120313D3
:10113600A80083160313330883120313A9000A16A3
:101146008A1101210A128A15831203132A08290417
:1011560028042704031DB028B1284A29831603133F
:101166002A08803AFF0080307F02031DBC28023027
:101176002902031CBF28C0284A29C1288316031345
:101186002608F0002708F1002808F2007030F30066
:101196008930F4004030F5000A168A1535260A1201
:1011A6008A150318D728D828E128F73083160313A1
:1011B600A9070318AA0AFF30AA07EA28F8308316F7
:1011C6000313A9070318AA0AFF30AA07EA28290861
:1011D6000A128A1141240A128A158312031345083A
:1011E60083160313A60083120313460883160313FC
:1011F600A70083120313470883160313A8001F29A9
:101206003108F0003208F1003308F2002608F30036
:101216002708F4002808F5000A168A1197240A12EE
:101226008A15730883160313A3007208A2007108B7
:10123600A1007008A0003B293108F0003208F10037
:101246003308F2002608F3002708F4002808F50002
:101256000A168A116F220A128A1573088316031357
:10126600A3007208A2007108A1007008A0003B2923
:101276002308AE002208AD002108AC002008AB0010
:101286000030B1000030B2000030B300BA29831636
:101296000313310883120313A700831603133208BE
:1012A60083120313A8008316031333088312031350
:1012B600A9000A168A1101210A128A15831203133C
:1012C6002A0883160313AE00831203132908831614
:1012D6000313AD0083120313280883160313AC000F
:1012E60083120313270883160313AB002E08FB0093
:1012F6002D08FA002C08F9002B08F8000A128A11AA
:101306001D200A128A15780883120313D200790861
:10131600D3007A08D400831603133108831203130B
:10132600D50083160313320883120313D6008316DF
:101336000313330883120313D7000A168A11E22017
:101346000A128A1583120313520883160313B10077
:1013560083120313530883160313B2008312031375
:10136600540883160313B300A901AA01BA29B401CC
:101376000314B40D34080A3A031DC229C329C5292A
:101386001C2A1C2A340883120313E40001300310BC
:10139600E40DFF3E031DCA290310640D013E8400BF
:1013A6000A168A110A200A128A15E5000A168A11F7
:1013B6000A200A128A15E6000A168A110A200A125B
:1013C6008A15E7000A168A110A200A128A15E80009
:1013D6006808831603132E02031D072A83120313BC
:1013E6006708831603132D02031D072A83120313AE
:1013F6006608831603132C02031D072A83120313A0
:101406006508831603132B0203180A2A0B2A0D2AD2
:101416001C2A1C2A013083120313E4006408831675
:101426000313B40734080A3A031D1A2A1B2AC529CE
:101436001C2A0330240583120313E40000308316AC
:101446000313250583120313E500650864040319D5
:101456002D2A2E2A462B831603133508013E8400B7
:10146600831380080319382A392A4B2A2D30831210
:101476000313E4006408AA00831603133508013E2B
:10148600840000080A128A1100270A128A15462BC0
:101496002D3083120313E4008316031335088400EA
:1014A60083130008840083120313640883178000E3
:1014B6000130E400831603133508840083120313F6
:1014C600640883138007462B462B462B831603138B
:1014D6003508013E8400831380080319732A742A91
:1014E600D82A003083120313A3000030A200003074
:1014F600A1000A30A00083160313340883120313D5
:10150600E40001300310E40DFF3E031D852A03109D
:10151600640D013E84000A168A110A200A128A15F1
:10152600F0000A168A110A200A128A15F1000A1614
:101536008A110A200A128A15F2000A168A110A204E
:101546000A128A15F300831603132E08F7002D08D6
:10155600F6002C08F5002B08F4000A168A15A126B9
:101566000A128A15730883120313A7007208A600CD
:101576007108A5007008A4000A168A1511250A121A
:101586008A15831203132008303EE5006508AA0079
:10159600831603133508013E8400831300080A12DC
:1015A6008A1100270A128A15462B0030831203136C
:1015B600A3000030A2000030A1000A30A00083166C
:1015C6000313340883120313E40001300310E40DFF
:1015D600FF3E031DE92A0310640D013E84000A162E
:1015E6008A110A200A128A15F0000A168A110A20A0
:1015F6000A128A15F1000A168A110A200A128A1599
:10160600F2000A168A110A200A128A15F3008316B6
:1016160003132E08F7002D08F6002C08F5002B08FA
:10162600F4000A168A15A1260A128A15730883126F
:101636000313A7007208A6007108A5007008A4008D
:101646000A168A1511250A128A1583120313200811
:10165600303EE50083160313350884008313000823
:101666008400831203136508831780000130E400A9
:101676008316031335088400831203136408831347
:101686008007462B462BFF3083120313E4006408C1
:1016960083160313B4073408FF3A031D532B542B48
:1016A600692A982B982B831603133508013E84006C
:1016B600831380080319602B612B732B3030831240
:1016C6000313E4006408AA00831603133508013ED9
:1016D600840000080A128A1100270A128A158F2B25
:1016E600303083120313E400831603133508840095
:1016F6008313000884008312031364088317800091
:101706000130E400831603133508840083120313A3
:101716006408831380078F2BFF3083160313A907F2
:101726000318AA0AFF30AA07982B2A08803AFF0056
:1017360080307F02031DA12B013029020318A42B40
:10174600A52B562BA62B831603133008803AFF00D1
:1017560080307F02031DB12B09302F02031CB42BEE
:10176600B52BBE2B083083120313E40064088316DE
:101776000313B400C82B831603132F088312031315
:10178600E400640883160313B400340883120313B9
:10179600E400E501E41BE503640883160313AF02C6
:1017A60083120313650883160313031CB003B002E8
:1017B6003408031DDF2B172C3508013E84008313E4
:1017C60080080319E72BE82BFA2B2E30831203131C
:1017D600E4006408AA00831603133508013E84005A
:1017E60000080A128A1100270A128A15172C2E30B1
:1017F60083120313E400831603133508840083134E
:1018060000088400831203136408831780000130E4
:10181600E400831603133508840083120313640857
:1018260083138007172C172C8316031334080A1208
:101836008A1141240A128A15831203134508B80037
:101846004608B9004708BA00831603133108831205
:101856000313B50083160313320883120313B6006D
:1018660083160313330883120313B7000A128A116F
:1018760009270A128A15831203133508A7003608AA
:10188600A8003708A9000A168A1101210A128A152A
:10189600831203132A0883160313AE00831203135D
:1018A600290883160313AD00831203132808831631
:1018B6000313AC0083120313270883160313AB002C
:1018C6009C2D3508013E84008313800803196C2C77
:1018D6006D2CD12C003083120313A3000030A2001C
:1018E6000030A1000A30A0008316031334088312C7
:1018F6000313E40001300310E40DFF3E031D7E2CAC
:101906000310640D013E84000A168A110A200A1289
:101916008A15F0000A168A110A200A128A15F100A1
:101926000A168A110A200A128A15F2000A168A1164
:101936000A200A128A15F300831603132E08F700ED
:101946002D08F6002C08F5002B08F4000A168A1557
:10195600A1260A128A15730883120313A7007208B8
:10196600A6007108A5007008A4000A168A1511259C
:101976000A128A15831203132008303EE500650813
:10198600AA00831603133508013E8400831300085A
:101996000A128A1100270A128A153E2D0030831278
:1019A6000313A3000030A2000030A1000A30A000FB
:1019B60083160313340883120313E4000130031063
:1019C600E40DFF3E031DE22C0310640D013E84006E
:1019D6000A168A110A200A128A15F0000A168A11B6
:1019E6000A200A128A15F1000A168A110A200A121A
:1019F6008A15F2000A168A110A200A128A15F300BD
:101A0600831603132E08F7002D08F6002C08F500A0
:101A16002B08F4000A168A15A1260A128A157308DD
:101A260083120313A7007208A6007108A5007008A8
:101A3600A4000A168A1511250A128A1583120313A1
:101A46002008303EE500831603133508840083130F
:101A56000008840083120313650883178000013091
:101A6600E400831603133508840083120313640805
:101A7600831380073E2D8316031334088312031342
:101A8600E40001300310E40DFF3E031D452D031055
:101A9600640D013E84000A168A110A200A128A156C
:101AA600A0000A168A110A200A128A15A1000A162F
:101AB6008A110A200A128A15A2000A168A110A2019
:101AC6000A128A15A300831603132E088312031322
:101AD600A700831603132D0883120313A60083168B
:101AE60003132C0883120313A500831603132B0874
:101AF60083120313A4000A168A1511250A128A15E1
:101B060083120313230883160313AE0083120313F1
:101B1600220883160313AD008312031321088316CC
:101B26000313AC0083120313200883160313AB00C0
:101B36009C2DFF3083120313E400640883160313FD
:101B4600B4073408FF3A031DA92DAA2D642CEC2DE9
:101B5600EC2D3508013E8400831380080319B42D4B
:101B6600B52DC72D303083120313E4006408AA0094
:101B7600831603133508013E840000080A128A11F1
:101B860000270A128A15E32D303083120313E4006E
:101B96008316031335088400831300088400831218
:101BA60003136408831780000130E40083160313CF
:101BB6003508840083120313640883138007E32D1A
:101BC600FF3083160313AF070318B00AFF30B007C0
:101BD600EC2D30082F04031DF12DF22DAC2DE02F36
:101BE600E02F83126308840083130008E4000230A8
:101BF6008007640884000008E500840A0008E600FF
:101C0600650883160313AB00831203136608831655
:101C16000313AC000030AC1BFF30AD00AE00AE1FAE
:101C2600152E162E262E0330A4040030A504AB096B
:101C3600AC09AD09AE09AB0A0319AC0A0319AD0A22
:101C46000319AE0A262E30082F04031D2B2E2C2E28
:101C56003B2E2E082D042C042B04031D332E342E6C
:101C66003B2E0130AF070318B00A0030B0073B2EF9
:101C7600B4010314B40D34080A3A031D432E442E4E
:101C8600462E9D2E9D2E340883120313E400013048
:101C96000310E40DFF3E031D4B2E0310640D013EA1
:101CA60084000A168A110A200A128A15E5000A1605
:101CB6008A110A200A128A15E6000A168A110A20D3
:101CC6000A128A15E7000A168A110A200A128A15CC
:101CD600E8006808831603132E02031D882E83125C
:101CE60003136708831603132D02031D882E831220
:101CF60003136608831603132C02031D882E831212
:101D060003136508831603132B0203188B2E8C2EE0
:101D16008E2E9D2E9D2E013083120313E40064083F
:101D260083160313B40734080A3A031D9B2E9C2E10
:101D3600462E9D2E340883120313E400E501E41BAE
:101D4600E5036508803AE600831603133008803AF7
:101D5600831203136602031DB62E831603132F0880
:101D66008312031364020318B92EBA2EC52E8316E6
:101D760003132F0883120313E40064088316031366
:101D8600B400EB2E83160313340883120313E40006
:101D9600E501E41BE503831603133008803A83123A
:101DA6000313E6006508803A6602031DDE2E64080A
:101DB600831603132F020318E12EE22EEB2E831651
:101DC60003133408AF00B001AF1BB003EB2EEB2EAC
:101DD600033083160313240583120313E400003033
:101DE60083160313250583120313E50065086404AF
:101DF6000319FE2EFF2ECC2F831603133508013E42
:101E06008400831380080319092F0A2F1C2F2D30F5
:101E160083120313E4006408AA008316031335082B
:101E2600013E840000080A128A1100270A128A1548
:101E3600CC2F2D3083120313E400831603133508C9
:101E46008400831300088400831203136408831735
:101E560080000130E40083160313350884008312E2
:101E66000313640883138007CC2FCC2FCC2F0030AC
:101E76008312A3000030A2000030A1000A30A000A7
:101E8600831603132F0883120313E4000130031093
:101E9600E40DFF3E031D4A2F0310640D013E84002E
:101EA6000A168A110A200A128A15F0000A168A11E1
:101EB6000A200A128A15F1000A168A110A200A1245
:101EC6008A15F2000A168A110A200A128A15F300E8
:101ED600831603132E08F7002D08F6002C08F500CC
:101EE6002B08F4000A168A15A1260A128A15730809
:101EF60083120313A7007208A6007108A5007008D4
:101F0600A4000A168A1511250A128A1583120313CC
:101F16002008303EE500650883160313B400350833
:101F2600013E84008313800803199A2F9B2FAD2F3F
:101F3600340883120313E4006408AA00831603130B
:101F46003508013E840000080A128A1100270A1289
:101F56008A15CC2F83160313340883120313E40067
:101F66008316031335088400831300088400831244
:101F760003136408831780000130E40083160313FB
:101F86003508840083120313640883138007CC2F5B
:101F9600CC2FFF3083160313AF070318B00AFF30A8
:101FA600B007FF303006031DDA2FFF302F06031D62
:101FB600DD2FDE2F3A2FE02FE02F0130831203139F
:101FC600E207FF30620784000A168A110A200A1205
:101FD6008A15E400640883160313B400B408031DCD
:101FE600F52FF82F0A128A11002AFA2FFA2F8312D8
:101FF6000313E201E301FF2F0800FF1B0A288313E6
:102006007F1883170008840A0319FF0A0800103096
:102016008A000408840A820700340134003400343C
:1020260000340A340034003400346434003400349C
:102036000034E834033400340034103427340034D8
:102046000034A034863401340034403442340F3432
:10205600003480349634983400340034E134F53456
:1020660005340034CA349A343B34003480343F3467
:10207600CD34CC343D34D73423343C341234833419
:102086003A34B734D1343834C63427343734383454
:1020960086343534C034D6343334CC342B343234ED
:1020A600703489343034E734DB342E34E5343C3450
:1020B6001E344234A2340D34003480343F340034AC
:1020C600203441340034C834423400347A34443441
:1020D60040341C3446345034C334473424347434C6
:1020E6004934973418344B34BC34BE344C346B34D6
:1020F6006E344E340334153450347934AD34603490
:10210600F33449347134703475346534723474344C
:102116006F347334203449342F344F342E342E34F4
:102126002E3400345434723461346E3473346D3466
:102136006934733469346F346E342E342E342E344D
:10214600003454346D3470346F3462346A343D3440
:102156002534693425342E3431346634003443341E
:102166006F346E346634693467347534723461346E
:102176006E3464346F34003449346E3469346334F5
:10218600693461346E3464346F34003454346D34DD
:1021960070343D3425342E343134663400345034B2
:1021A60057344D342E342E342E34003425346934CD
:0621B6000D340A34003470
:1021C400803083120313D4065508C5005608C60090
:1021D4005708C7005208C8005308C9005408CA0069
:1021E4000A168A1151230A168A1183120313450809
:1021F400D2004608D3004708D400002908008312FF
:1022040003132708AB002808AC002908AD0003100D
:102214002C0D2D0DAE002E08B400B408031D132997
:1022240014291E290030AA000030A9000030A8009B
:102234000030A700A629A6292708AB002808AC006F
:102244002908AD0017300310AD0CAC0CAB0CFF3EED
:10225400031D25292B08AE002E08AF00A817FF3058
:10226400A705FF30A8050030A9052708B0002808F5
:10227400B1002908B200B3018E30B402B41F43295F
:10228400442969293408803A8F3E03184A294B2986
:1022940056290030AA000030A9000030A800003000
:1022A400A700A629A629562901300310B30CB20CA5
:1022B400B10CB00CFF3E031D57290130AB002B08B5
:1022C400B407031D6629672956298D298D291830DD
:1022D4003402031C6E296F2986290030AA000030BD
:1022E400A9000030A8000030A700A629A629862945
:1022F4000130AB000310B00DB10DB20DB30DAB0B3B
:102304007C290130B4028629B408031D8A298B294B
:102314007A298D298D292F08031D91299D29B0091A
:10232400B109B209B309B00A0319B10A0319B20A0F
:102334000319B30A9D293308AA003208A9003108F9
:10234400A8003008A700A629080083120313480830
:10235400CB004908CC004A08CD0003104C0D4D0DAC
:10236400CE004E08D300D308031DB929BA29C229C7
:102374000030C5000030C6000030C7006E2A6E2A47
:102384004508CB004608CC004708CD0003104C0D8F
:102394004D0DCE004E08D400D408031DD229D329F4
:1023A400DB290030C5000030C6000030C7006E2AAB
:1023B4006E2A0030D0000030D1000030D2008930C5
:1023C4005407CB004B08D3024808CB004908CC0083
:1023D4004A08CD0010300310CD0CCC0CCB0CFF3EC2
:1023E400031DED294B08CE004E08D4004508CB0050
:1023F4004608CC004708CD0010300310CD0CCC0C9F
:10240400CB0CFF3E031DFF294B08CE004E08D4061B
:102414008030CB004B08D405C917FF30C805FF3006
:10242400C9050030CA05C617FF30C505FF30C6050B
:102434000030C7051830CB004B08CF00212A0130EB
:102444000310D00DD10DD20DFF3E031D222A4708E3
:102454004A02031D332A46084902031D332A45084C
:102464004802031C362A372A432A4508C80246086C
:10247400031C460FC9024708031C470ACA0250142A
:10248400432A01300310C80DC90DCA0DFF3E031DB8
:10249400442A0130CF02031D502A512A212A522AEC
:1024A4005008F0005108F1005208F2005308CB0024
:1024B4004B08F3005408CC004C08F4000A168A15A3
:1024C40085270A168A11700883120313C500710840
:1024D400C6007208C7006E2A08007008F60071086A
:1024E400F7007208F8000310770D780DF9007908E9
:1024F40083120313A500A508031D812A822A8C2AAE
:102504000030F3000030F2000030F1000030F00041
:10251400502B502B7308F6007408F7007508F80068
:102524000310770D780DF9007908A400A408031DA1
:102534009C2A9D2AA72A0030F3000030F2000030C4
:10254400F1000030F000502B502BF117FF30F00554
:10255400FF30F1050030F205F417FF30F305FF30CA
:10256400F4050030F5050030A3000030A20000306F
:10257400A1000030A0007F30A50298302407F600A7
:102584007608A5021830F6007608A400C92A01309E
:10259400F6000310A00DA10DA20DA30DF60BCB2A7E
:1025A40075087202031DDC2A74087102031DDC2AFB
:1025B40073087002031CDF2AE02AEC2A7308F00275
:1025C4007408031C740FF1027508031C750AF202E7
:1025D4002014EC2A01300310F00DF10DF20DFF3E32
:1025E400031DED2A0130A402031DF92AFA2AC92A7F
:1025F400A51FFD2AFE2A232B2508803A973E03189F
:10260400042B052B102B0030F3000030F2000030B7
:10261400F1000030F000502B502B102B0130031030
:10262400A30CA20CA10CA00CFF3E031D112B013026
:10263400F6007608A507031D202B212B102B472B12
:10264400472B18302502031C282B292B402B003044
:10265400F3000030F2000030F1000030F000502BA5
:10266400502B402B0130F6000310A00DA10DA20D3C
:10267400A30DF60B362B0130A502402BA508031D34
:10268400442B452B342B472B472B2308F3002208DC
:10269400F2002108F1002008F000502B08008312FA
:1026A40003134508CB004608CC004708CD000310AF
:1026B4004C0D4D0DCE004E08D1004808CB00490802
:1026C400CC004A08CD0003104C0D4D0DCE004E0831
:1026D400D0005108031D6F2B802B500851020318A2
:1026E400742B752B882B5103FF3A5007CB001930FC
:1026F4004B02031C7E2B7F2B882B802B4808C500A4
:102704004908C6004A08C700962C962C5008031D99
:102714008C2B9C2B510850020318912B922B9D2B30
:102724005003FF3A5107CB0019304B02031C9B2B7B
:102734009C2B9D2B962C0630CB004B08CF00C71F3B
:10274400A42BA52BA62BCF17CA1FA92BAA2BAB2BC7
:102754004F17C617FF30C505FF30C6050030C70543
:10276400C917FF30C805FF30C9050030CA05500835
:1027740051020318BE2BBF2BF02BC02B01300310CA
:10278400C80DC90DCA0DFF3E031DC12B0130D00277
:10279400500851060319CF2BD02BE82B0130CF0260
:1027A4004F080739031DD72BD82BC02BE82BE82B58
:1027B400E82B01300310C70CC60CC50CFF3E031DEB
:1027C400DC2B0130CB004B08D107E82B5108500615
:1027D400031DED2BEE2BDB2B272C272C510850024D
:1027E4000318F52BF62B272CF72B01300310C50DFE
:1027F400C60DC70DFF3E031DF82B0130D102500852
:1028040051060319062C072C1F2C0130CF024F0848
:102814000739031D0E2C0F2CF72B1F2C1F2C1F2CDC
:1028240001300310CA0CC90CC80CFF3E031D132C45
:102834000130CB004B08D0071F2C51085006031D54
:10284400242C252C122C272C272CCF1F2A2C2B2C64
:102854003C2CFF30C506FF30C606FF30C7060130EA
:10286400C507003003180130C607003003180130D3
:10287400C7073C2C4F1F3F2C402C512CFF30C8065F
:10288400FF30C906FF30CA060130C80700300318FC
:102894000130C907003003180130CA07512CCF0199
:1028A4004508C807460803110318460A03195B2C98
:1028B400C907470803110318470A0319622CCA07FA
:1028C400CA1F652C662C7A2CFF30C806FF30C90657
:1028D400FF30CA060130C807003003180130C907A9
:1028E400003003180130CA07CF010314CF0D7A2C2E
:1028F4004808F0004908F1004A08F2005108CB00EA
:102904004B08F3004F08CC004C08F4000A168A1553
:1029140085270A168A11700883120313C5007108EB
:10292400C6007208C700962C0800703084000008A6
:10293400F600840A0008F700840A0008F800840AF4
:102944000008F9000310780D790DFA007A08831253
:102954000313A500A508031DB02CB12CBB2C00301B
:10296400F3000030F2000030F1000030F000EA2DF6
:10297400EA2D733084000008F600840A0008F7008A
:10298400840A0008F800840A0008F9000310780D8E
:10299400790DFA007A08A400A408031DD22CD32CC4
:1029A400DD2C0030F3000030F2000030F100003084
:1029B400F000EA2DEA2D7030840000308004840A8F
:1029C40000308004840A80308004840A003080044B
:1029D40070308400FF308005840AFF308005840A4B
:1029E400FF308005840A0030800573308400003095
:1029F4008004840A00308004840A80308004840ABD
:102A04000030800473308400FF308005840AFF3076
:102A14008005840AFF308005840A00308005003078
:102A2400A3000030A2000030A1000030A0007F30DD
:102A3400A502A0302407F6007608A5022030F6008F
:102A44007608A400252D0130F6000310A00DA10D79
:102A5400A20DA30DF60B272D733084000008F60099
:102A6400840A0008F700840A0008F800840A0008B1
:102A7400F900703084000008FA00840A0008FB00A2
:102A8400840A0008FC00840A0008FD0079087D021D
:102A9400031D562D78087C02031D562D77087B02F2
:102AA400031D562D76087A02031C592D5A2D7D2DAF
:102AB400733084000008F600840A0008F700840AD2
:102AC4000008F800840A0008F900703084007608D1
:102AD4008002840A7708031C770F8002840A78082E
:102AE400031C780F8002840A7908031C790A800287
:102AF4000330840220147030840001300310800DF0
:102B0400840A800D840A800D840A800D8403840362
:102B14008403FF3E031D802D0130A402031D932D69
:102B2400942D252DA51F972D982DBD2D2508803A70
:102B34009F3E03189E2D9F2DAA2D0030F3000030D8
:102B4400F2000030F1000030F000EA2DEA2DAA2D49
:102B540001300310A30CA20CA10CA00CFF3E031D1A
:102B6400AB2D0130F6007608A507031DBA2DBB2D49
:102B7400AA2DE12DE12D20302502031CC22DC32DE9
:102B8400DA2D0030F3000030F2000030F1000030A4
:102B9400F000EA2DEA2DDA2D0130F6000310A00D25
:102BA400A10DA20DA30DF60BD02D0130A502DA2D37
:102BB400A508031DDE2DDF2DCE2DE12DE12D2308EB
:102BC400F3002208F2002108F1002008F000EA2DA9
:102BD4000800E03083160317880089018312031765
:102BE4008701880183160313850186018701880103
:102BF400073089009F010A168A15F5230A168A11DF
:102C04000A168A156F250A168A1100300A168A15C3
:102C1400DA230A168A11A330F6008030F7000A1668
:102C24008A15E6240A168A1140300A168A15DA2310
:102C34000A168A117730F6008030F7000A168A15D2
:102C4400E6240A168A11F430F0000130F1000A1665
:102C54008A155C240A168A110A168A1507240A168C
:102C64008A11A330F6008030F7000A168A15E6248C
:102C74000A168A1140300A168A15DA230A168A11AE
:102C8400C330F6008030F7000A168A15E6240A16C7
:102C94008A11F430F0000130F1000A168A155C2420
:102CA4000A168A110A168A1507240A168A11BF30D1
:102CB400831603139200803083120313950080302F
:102CC4009B000C3097000C309D00073092006A2E58
:102CD4008C1C6D2E6E2E6A2E6F2E8B0195019B011E
:102CE40083160313C701C801C901CA01C501C6017E
:102CF4000030BF000030C0000030C10000300A16B0
:102D04008A15DA230A168A11B030F6008030F700EB
:102D14000A168A15E6240A168A1140300A168A15FC
:102D2400DA230A168A118630F6008030F7000A1674
:102D34008A15E6240A168A11BC30F0000230F1002C
:102D44000A168A155C240A168A11A82E0A168A15F0
:102D5400B8230A168A1183160313BC00BD013C086C
:102D6400CB003D08CC00D430831203139F001F1402
:102D74009F14BC2E9F18BF2EC02EBC2EC12E1E0821
:102D840083160313BC00BD013C08C7003D08C800FE
:102D94001E08BC00BD013C08C9003D08CA001E084D
:102DA400BC0006300310BC0CFF3E031DD42E83125E
:102DB40003131E0883160313BD00BE010230FF0077
:102DC4000310BD0DBE0DFF0BE22E3C083D07C500F0
:102DD4000030031801303E07C600831203131F108E
:102DE40083160313460883120313EB01EB078316C0
:102DF4000313450883120313EA01EA07CA300A16CB
:102E04008A1596240A168A11003083120313C5000A
:102E14008030C6004430C7000030B500FA30B60038
:102E24004330B700831603134608F901F907450830
:102E3400F801F8070A168A1545240A168A11780833
:102E440083120313B8007908B9007A08BA000A1289
:102E54008A1109270A168A11831203133508C80038
:102E64003608C9003708CA000A168A11A7210A16AB
:102E74008A1183120313450883160313BF008312B8
:102E84000313460883160313C00083120313470871
:102E940083160313C1004C08F901F9074B08F80124
:102EA400F8070A168A1545240A168A117808831623
:102EB4000313C2007908C3007A08C4000A168A15ED
:102EC40007240A168A1100300A168A15DA230A160C
:102ED4008A11BA3083160313BC003C08831203130F
:102EE400EA00831603133F0883120313EB008316CF
:102EF4000313400883120313EC00831603134108E1
:102F040083120313ED0090300A128A1503200A1667
:102F14008A119030F6000130F7000A168A15E6246B
:102F24000A168A1140300A168A15DA230A168A11FB
:102F3400953083160313BC003C0883120313EA0084
:102F4400831603134C0883120313EC01EC07831656
:102F540003134B0883120313EB01EB0783160313CC
:102F6400420883120313ED008316031343088312EC
:102F74000313EE0083160313440883120313EF00B4
:102F840090300A128A1503200A168A119030F6002E
:102F94000130F7000A168A15E6240A168A118316E8
:102FA40003133F08F0004008F1004108F200420812
:102FB400F3004308F4004408F5000A168A15352680
:102FC4000A168A11031CE72FE82FEE2F831203132E
:102FD40006109B019501F72F831203130614831621
:102FE40003134B08831203139B000C3097000C301F
:0C2FF4009D00A82EA82E0A128A110028A9
:10377000B92B831203138C1EBE2BBF2BB92BC02B6E
:103780001A08C22B0800C42B831203130C1EC92B6A
:10379000CA2BC42BCB2B2A0899000800720871048D
:1037A00070040319D42BD52BD82B8030F206D82BDC
:1037B000D92B0800F6008312031305117608803E0A
:1037C0000A168A1577240A168A150800013083160E
:1037D000031381000D30831203138100EF2B0B1DA7
:1037E000F22BF32BEF2B0B11080083160313861615
:1037F00086131930990090308312031398002030FB
:103800008316031398008316031787010800831299
:103810000313051101300A168A1577240A168A1532
:103820000230F0000030F1000A168A155C240A16F6
:103830008A150800F100F0013A3071020318212CBA
:10384000222C2C2C30307102031C272C282C2C2CE1
:10385000F0010314F00D2C2C700C2E2C0800831397
:10386000BF308400CD300A128A11F7270A168A1554
:10387000831790308400E0300A128A11F7270A1665
:103880008A1583010A168A11EB2D7808F000790851
:10389000F100F2018E30FB007B08F300F4010A1600
:1038A0008A1585270A168A157008F8007108F9002C
:1038B0007208FA005B2C0800F201F3016B2C0A1667
:1038C0008A15E6230A168A150130F2070318F30A4F
:1038D0000030F3076B2C73087102031D712C720802
:1038E00070020318742C752C5F2C762C0800F500E0
:1038F0000130F0000030F1000A168A155C240A1627
:103900008A157508F40004300310F40CFF3E031D03
:10391000842C74080F3983120313880085148510D2
:1039200075080F3988008514851008008316031365
:10393000B600B801013083120313EC006C08831643
:103940000313B9006A3083120313EC006C0883166A
:103950000313B700360883120313EC006C08E2006F
:10396000B730ED006D08E300B8300A128A11FA2171
:103970000A168A15BB2C0800F401F501BF2C701C37
:10398000C22CC32CC92C7208F4070318F50A73085B
:10399000F50701300310F20DF30DFF3E031DCA2C95
:1039A00001300310F10CF00CFF3E031DD12C710807
:1039B0007004031DDC2CDD2CBF2CDE2C7508F101FE
:1039C000F1077408F001F007E52C080083120313D7
:1039D0000515FF2C7708FF00760884000A168A1167
:1039E00000200A168A150A168A1577240A168A15DF
:1039F0000130F6070318F70A0030F707FF2C7708A5
:103A000083120313FF00760884000A168A1100202F
:103A10000A168A150038031D0E2D0F2DEA2C102DC5
:103A2000080083120313230822042104200403192D
:103A30001A2D1B2D652DA9010314A90D2D2D013063
:103A4000A8000310A00DA10DA20DA30DA80B212D00
:103A50000130A8002808A9072D2DA31F302D312DD6
:103A60001F2D332D332D23082702031D412D22083E
:103A70002602031D412D21082502031D412D20088A
:103A80002402031C442D452D542D2008A402210896
:103A9000031C210FA5022208031C220FA6022308E3
:103AA000031C230FA702542D01300310A30CA20CFA
:103AB000A10CA00CFF3E031D552D0130A902031DD2
:103AC000622D632D332D652D652D2708A300260853
:103AD000A2002508A1002408A0006E2D080083166E
:103AE000031788010330F6007608F70083160313E6
:103AF00085018801831203130511851005120F300B
:103B0000F0000030F1000A168A155C240A168A15A6
:103B10007708831203138800851485100A30F0009B
:103B20000030F1000A168A155C240A168A158312E1
:103B30000313851485100A30F0000030F1000A16D6
:103B40008A155C240A168A158312031385148510BE
:103B50000A30F0000030F1000A168A155C240A16BB
:103B60008A150230831203138800851485102830CB
:103B70000A168A1577240A168A150C300A168A1531
:103B800077240A168A150A168A1507240A168A1532
:103B900006300A168A1577240A168A150800F601D7
:103BA000F31FD32DD42DDD2DF209F309F20A0319E9
:103BB000F30AF6010314F60DDD2DF11FE02DE12DC2
:103BC000E72DF009F109F00A0319F10AE72D710850
:103BD00070040319EC2DED2D232EF5010314F50DC2
:103BE000FD2D01300310F00DF10DFF3E031DF22DF0
:103BF0000130F4007408F507FD2DF11F002E012E91
:103C0000F12D032E032E71087302031D092E700877
:103C10007202031C0C2E0D2E142E7008F202710875
:103C2000031CF303F302142E01300310F10CF00C0B
:103C3000FF3E031D152E0130F502031D202E212EFF
:103C4000032E232E232E7608031D272E2D2EF20958
:103C5000F309F20A0319F30A2D2E7308F101F10793
:103C60007208F001F007342E0800F21F382E392EAA
:103C70005F2E0030F6000030F7008030F800700949
:103C8000F9007109FA007209FB00F90A0319FA0A2E
:103C90000319FB0A7908F6077A0803187A0F512EE0
:103CA000522EF7077B0803187B0F572E582EF80764
:103CB0007608F0007708F1007808F2005F2EF51F13
:103CC000622E632E892E0030F6000030F70080301F
:103CD000F8007309F9007409FA007509FB00F90A84
:103CE0000319FA0A0319FB0A7908F6077A08031878
:103CF0007A0F7B2E7C2EF7077B0803187B0F812E13
:103D0000822EF8077608F3007708F4007808F500AB
:103D1000892E8030F2068030F50675087202031D88
:103D2000972E74087102031D972E730870020318F2
:103D30009A2E9B2E9D2E0310A02E0314A02EA02E93
:103D400008000030FC000030FB000030FA000030BA
:103D5000F90073087204710470040319B02EB12EB7
:103D6000052FFD010314FD0DC32E0130F8000310D3
:103D7000F00DF10DF20DF30DF80BB72E0130F80038
:103D80007808FD07C32EF31FC62EC72EB52EC92EE9
:103D9000C92E0130F8000310F90DFA0DFB0DFC0DD2
:103DA000F80BCB2E73087702031DE02E7208760203
:103DB000031DE02E71087502031DE02E70087402C9
:103DC000031CE32EE42EF42E7008F4027108031C89
:103DD000710FF5027208031C720FF6027308031CC0
:103DE000730FF7027914F42E01300310F30CF20C68
:103DF000F10CF00CFF3E031DF52E0130FD02031DFA
:103E0000022F032FC92E052F052F7C08F3007B08F6
:103E1000F2007A08F1007908F0000E2F08008312F2
:103E20000313A101F81F152F162F1F2FF709F809EB
:103E3000F70A0319F80AA1010314A10D1F2FFA1F95
:103E4000222F232F2D2FF909FA09F90A0319FA0A4B
:103E50000130FB007B08A1062D2FA201A3017808E9
:103E600077040319342F352F732FA0010314A00DED
:103E7000452F01300310F70DF80DFF3E031D3A2FBB
:103E80000130FB007B08A007452FF81F482F492F62
:103E9000392F4B2F4B2F01300310A20DA30DFF3EE6
:103EA000031D4C2F78087A02031D582F77087902DA
:103EB000031C5B2F5C2F642F7708F9027808031C22
:103EC000FA03FA022214642F01300310F80CF70CE5
:103ED000FF3E031D652F0130A002031D702F712FBF
:103EE0004B2F732F732F2108031D772F7D2FA209CE
:103EF000A309A20A0319A30A7D2F2308F801F807D2
:103F00002208F701F707842F08007308031D892F83
:103F1000912F720871047004031D8F2F902FA72F0B
:103F2000912F0030F0000030F1000030F200FF2F40
:103F3000FF2FA72F0130F5007508F307013003109C
:103F4000F20CF10CF00CFF3E031D9F2FA72FFE304B
:103F50007205031DAC2FAD2F9A2FC52FC52F013031
:103F6000F5007508F3070130F00700300318013041
:103F7000F107003003180130F20701300310F20C92
:103F8000F10CF00CFF3E031DBE2FFF307205031D28
:103F9000CA2FCB2FAF2FD82FD82F0130F3020130EB
:103FA0000310F00DF10DF20DFF3E031DD02FD82FA1
:103FB000F11FDB2FDC2FCD2F7318DF2FE02FE62F23
:103FC000FF30F0057F30F105FF30F2050310F30CF0
:103FD0007308F500F601F70110300310F50DF60D2A
:103FE000F70DFF3E031DED2F7508F0047608F10470
:103FF0007708F2047408031DFE2FFF2FF217080044
:04400E00D4E0FFFFFC
:00000001FF
